:100000000C9444010C9475010C9475010C947501C9
:100010000C9475010C9475010C9475010C94750188
:100020000C9475010C9412070C9412070C9412078F
:100030000C9475010C9475010C9475010C94750168
:100040000C9475010C9475010C9475010C94750158
:100050000C9475010C9475010C9475010C94C806F0
:100060000C9475010C9492060C9468060C9475011E
:100070000C9475010C9475010C9475010C94750128
:100080000C9475010C9475010C9475010C94750118
:100090000C9475010C9475010C9475010C94750108
:1000A0000C9475010C9475010C9475010C947501F8
:1000B0000C9475010C9475010C9475010C947501E8
:1000C0000C9475010C9475010C9475010C947501D8
:1000D0000C9475010C9475010C9475010C947501C8
:1000E0000C9475010C94CC010C94D3040C94430330
:1000F0000C9424030C9430030C948E070C94F90197
:100100000C94100C0C9451030C941C020C944B0393
:100110000C9462020C9408020C9433030C945E035A
:100120000C94F4040C9428030C942A020C9463039A
:100130000C94AF020C9455030C9439030C9459039E
:100140000C943D030C9447030C94BB040C945E0484
:100150000C9446040C942C030C945F030C941E0323
:100160000C945F0400002100240027002A002D00C9
:100170003000330001010000040107010A01000002
:100180000A0B02090C0D0E08070304010000000011
:10019000000000000000000000000000000000005F
:1001A000000000000000000000001211100000001C
:1001B000000000000000000000000000000000003F
:1001C00000000000000020002300260029002C0071
:1001D0002F003200000100000301060109010000A8
:1001E0002200250028002B002E00310034000201DF
:1001F0000000050108010B010505050507050808B4
:100200000808020202020A0A0808040404040101A0
:1002100001010101010103030303030303030407B5
:1002200007070C0C0C0C0C0C0C0C0202020206064C
:100230000606060606060B0B0B0B0B0B0B0B01023F
:1002400010202008081020401020408002010201E8
:1002500008040201010204081020408080402010A0
:1002600008040201800402018040201008040201F9
:100270000804020101020408102040800102040861
:10028000102040808E07100C11241FBECFEFD1E24A
:10029000DEBFCDBF00E00CBF24E0A6E7B2E001C0A6
:1002A0001D92A330B207E1F712E0A0E0B2E0ECED5E
:1002B000F8E100E00BBF02C007900D92A637B1072E
:1002C000D9F711E0C3E4D1E000E006C021970109AD
:1002D000802FFE010E94400CC234D10780E0080745
:1002E000A9F70E9439080C945C0C0C940000CF9282
:1002F000DF92EF92FF920F931F93CF93DF93EC0166
:100300006A017B0110E000E02FB7F8948091BB02F6
:100310009091BC02A091BD02B091BE022FBF888710
:100320009987AA87BB87E881F9810284F385E02D4C
:10033000CE01199597FF26C02FB7F8948091BB0284
:100340009091BC02A091BD02B091BE022FBF488522
:1003500059856A857B85841B950BA60BB70B4C8151
:100360005D816E817F8184179507A607B707D8F254
:10037000C801DF91CF911F910F91FF90EF90DF9017
:10038000CF900895F70181937F010F5F1F4FC01633
:10039000D10609F0B9CFECCFAF92BF92CF92DF92E6
:1003A000EF92FF920F931F93CF93DF936C017B012A
:1003B0008B01040F151FEB015E01AE18BF08C017BB
:1003C000D10759F06991D601ED91FC910190F0812E
:1003D000E02DC6011995892B79F7C501DF91CF91E1
:1003E0001F910F91FF90EF90DF90CF90BF90AF9053
:1003F0000895FC01538D448D252F30E0842F90E02B
:10040000821B930B541710F0CF960895019708950F
:10041000FC01918D828D981761F0A28DAE0FBF2FD8
:10042000B11D5D968C91928D9F5F9F73928F90E02E
:1004300008958FEF9FEF0895FC01918D828D98179D
:1004400031F0828DE80FF11D858D90E008958FEFDA
:100450009FEF0895FC01918D228D892F90E0805CA3
:100460009F4F821B91098F739927089587E493E02A
:100470000E942A0221E0892B09F420E0822F0895AE
:10048000FC01A48DA80FB92FB11DA35ABF4F2C9109
:10049000848D90E001968F739927848FA689B78900
:1004A0002C93A089B1898C91837080648C93938DF7
:1004B000848D981306C00288F389E02D80818F7D9A
:1004C00080830895EF92FF920F931F93CF93DF9352
:1004D000EC0181E0888F9B8D8C8D98131AC0E88980
:1004E000F989808185FF15C09FB7F894EE89FF894F
:1004F0006083E889F98980818370806480839FBFED
:1005000081E090E0DF91CF911F910F91FF90EF90EC
:100510000895F62E0B8D10E00F5F1F4F0F731127FC
:10052000E02E8C8D8E110CC00FB607FCFACFE88937
:10053000F989808185FFF5CFCE010E944002F1CF7D
:10054000EB8DEC0FFD2FF11DE35AFF4FF0829FB7AB
:10055000F8940B8FEA89FB8980818062CFCFCF939B
:10056000DF93EC01888D8823B9F0AA89BB89E889DB
:10057000F9898C9185FD03C0808186FD0DC00FB681
:1005800007FCF7CF8C9185FFF2CF808185FFEDCFFF
:10059000CE010E944002E9CFDF91CF91089580E023
:1005A00090E0892B29F00E94360281110E94000000
:1005B00080E090E0892B49F080E090E0892B29F0E1
:1005C0000E94000081110E94000080E090E0892BD1
:1005D00049F080E090E0892B29F00E940000811111
:1005E0000E94000080E090E0892B49F080E090E0DC
:1005F000892B29F00E94000081110C9400000895BD
:100600008150823108F05AC0E82FF0E08827E45F7B
:10061000FC4F8F4F0C94400C2C0330031E0324031B
:1006200028035E03330339033D03430347034B03AE
:10063000510355035E0359035F03630380918000F8
:100640008F77809380000895809180008F7DF9CF0F
:1006500080918000877FF5CF84B58F7784BD089522
:1006600084B58F7DFBCF8091B0008F778093B000F1
:1006700008958091B0008F7DF9CF809190008F77A1
:10068000809390000895809190008F7DF9CF8091A4
:100690009000877FF5CF8091A0008F778093A00096
:1006A00008958091A0008F7DF9CF8091A000877F71
:1006B000F5CF809120018F7780932001089580915C
:1006C00020018F7DF9CF80912001877FF5CFCF93D7
:1006D000DF93282F30E0F901E258FE4F8491F901B1
:1006E000E25CFD4FD491F901E850FE4FC491CC2358
:1006F000A1F081110E940003EC2FF0E0EE0FFF1F2C
:10070000EC53FE4FA591B491EC91ED2381E090E084
:1007100009F480E0DF91CF91089580E090E0FACF76
:100720001F93CF93DF93282F30E0F901E258FE4F5B
:100730008491F901E25CFD4FD491F901E850FE4F3C
:10074000C491CC23A9F0162F81110E940003EC2F35
:10075000F0E0EE0FFF1FE252FE4FA591B4918FB76C
:10076000F894EC91111108C0D095DE23DC938FBF73
:10077000DF91CF911F910895DE2BF8CFCF93DF93B8
:1007800090E0FC01E25CFD4F249188509E4FFC01FB
:1007900084918823D1F090E0880F991FFC01EC59D7
:1007A000FE4FA591B491FC01E252FE4FC591D49148
:1007B00061110EC09FB7F8948C91E22FE0958E23C3
:1007C0008C932881E223E8839FBFDF91CF91089526
:1007D0008FB7F894EC91E22BEC938FBFF6CF3FB735
:1007E000F8948091B7029091B802A091B902B091AB
:1007F000BA0226B5A89B05C02F3F19F00196A11D8E
:10080000B11D3FBFBA2FA92F982F8827BC01CD015A
:10081000620F711D811D911D42E0660F771F881FB9
:10082000991F4A95D1F708958F929F92AF92BF92E8
:10083000CF92DF92EF92FF924B015C010E94EF0397
:100840006B017C010E94EF036C197D098E099F09E1
:10085000683E734081059105A8F321E0821A910852
:10086000A108B10888EEC80E83E0D81EE11CF11C77
:1008700081149104A104B10429F7FF90EF90DF9057
:10088000CF90BF90AF909F908F9008952091C1021C
:100890003091C2022817390771F49091BF028091FC
:1008A000C002981741F0E091BF02F0E0EA58FD4F16
:1008B000808190E008958FEF9FEF08950895EF9263
:1008C000FF920F931F93CF93DF93DC015C96ED9023
:1008D000FC905D97E114F10479F481E090E01396C7
:1008E0009C938E93129790E080E0DF91CF911F91BF
:1008F0000F91FF90EF9008955196ED91FC915297D2
:1009000050968C915097982F90950FB75E962C919A
:100910005E97122F127021FD6095F89420811123AB
:1009200019F1282B2083E7012197F1F728E0462FC2
:1009300050E0308160FF1AC0382B3083E7012197E7
:10094000F1F7BA0175956795215089F7112381F068
:100950008081892380830FBF5C968D919C91019744
:10096000F1F781E090E0C1CF2923DCCF3923E5CF37
:100970009081892BEFCF2091C1023091C2022817BC
:10098000390771F48091C0022091BF0290E0805C31
:100990009F4F821B910960E470E00E942C0C089527
:1009A00090E080E008952091C1023091C2022817A2
:1009B0003907B9F49091BF028091C002981789F06D
:1009C000E091BF02F0E0EA58FD4F80812091BF0224
:1009D00030E02F5F3F4F2F7333272093BF0290E00B
:1009E00008958FEF9FEF089590E080E008954F9273
:1009F0005F926F927F928F929F92AF92BF92CF92AF
:100A0000DF92EF92FF920F931F93CF93DF93863481
:100A1000910509F4C1C0C4F48234910509F4C5C03C
:100A20008434910509F1DF91CF911F910F91FF90CF
:100A3000EF90DF90CF90BF90AF909F908F907F907E
:100A40006F905F904F9008958C34910509F4B6C073
:100A50008235910541F7F2E27F2EACE08A2EBDE0AF
:100A60009B2E0EE01FE008C0C0E27C2ED4E08D2E4D
:100A700015E0912E06E017E0CB018D7F019709F478
:100A8000A6C0DFEAAD2EB12C6230710561F66B01B4
:100A9000D0E0C0E07E0123E0C216D10409F09BC083
:100AA000E094F09437E0E322FF24B3E0EE0CFF1C67
:100AB000BA95E1F7C7018A5F9D4F7C01F70160811C
:100AC000812F0E949003F7016281802F0E94900382
:100AD000F7016481892D0E949003F7016681882DBA
:100AE0000E94900361E070E080E090E00E941404B6
:100AF0002196AC16BD0671F6E8E04E2E512CF7E0BB
:100B0000AF2EB12CC830D10509F472C02196872DC3
:100B10000E946703892B09F098C02E01FAE04F0E5E
:100B2000511C68E0662E712C77E0A72EB12C4C1674
:100B30005D0609F46AC0CE01B3010E942C0C23E0CB
:100B4000C216D10409F057C07501E81AF90A53E03A
:100B5000EE0CFF1C5A95E1F7C7018A5F9D4F7C019F
:100B6000F7016081812F0E949003F7016281802F3D
:100B70000E949003F7016481892D0E949003F70180
:100B80006681882D0E94900361E070E080E090E033
:100B90000E9414042196CBCF43E2742E54E1852E9B
:100BA000E5E19E2E06E117E167CF94E2792E28E178
:100BB000822E39E1932E0AE11BE15ECF11E2712E04
:100BC00008E0802E89E0982E0AE01BE055CFC5E5AD
:100BD000AC2EB12C5CCFF7E0EF22FF24A3E0EE0CAB
:100BE000FF1CAA95E1F797012A5F3D4F790166CF77
:100BF000D0E0C0E08CCF43E0880F991F4A95E1F721
:100C00009C012A5F3D4F7901ABCF60E0812F0E94AC
:100C1000900360E0802F0E94900360E0892D0E9485
:100C2000900360E0882DDF91CF911F910F91FF908D
:100C3000EF90DF90CF90BF90AF909F908F907F907C
:100C40006F905F904F900C949003CE01B2010E9480
:100C50002C0CF3E0CF16D10439F57501E81AF90A26
:100C600033E0EE0CFF1C3A95E1F797012A5F3D4F08
:100C70007901F9016081812F0E949003F70162815F
:100C8000802F0E949003F7016481892D0E949003B8
:100C9000F7016681882D0E94900361E070E080E09A
:100CA00090E00E9414042ECF23E0880F991F2A950C
:100CB000E1F79C01DBCFFC0101900020E9F73197BF
:100CC000AF01481B590BBC0184EE93E00C94CC019E
:100CD0001F920F920FB60F9211240BB60F922F9303
:100CE0003F934F935F936F937F938F939F93AF93B4
:100CF000BF93EF93FF9387E493E00E944002FF913C
:100D0000EF91BF91AF919F918F917F916F915F9183
:100D10004F913F912F910F900BBE0F900FBE0F90F0
:100D20001F9018951F920F920FB60F9211240BB6B9
:100D30000F922F938F939F93EF93FF93E09157031D
:100D4000F09158038081E0915D03F0915E0382FD94
:100D50001DC09081809160038F5F8F73209161032C
:100D6000821741F0E0916003F0E0E95BFC4F958F62
:100D700080936003FF91EF919F918F912F910F903E
:100D80000BBE0F900FBE0F901F9018958081F2CF71
:100D90001F920F920FB60F9211242F933F938F93B0
:100DA0009F93AF93BF938091BB029091BC02A0919F
:100DB000BD02B091BE023091B60223E0230F2D3761
:100DC00058F50196A11DB11D2093B6028093BB0278
:100DD0009093BC02A093BD02B093BE028091B70273
:100DE0009091B802A091B902B091BA020196A11DEA
:100DF000B11D8093B7029093B802A093B902B0934B
:100E0000BA02BF91AF919F918F913F912F910F9017
:100E10000FBE0F901F90189526E8230F0296A11D74
:100E2000B11DD2CF1F920F920FB60F9211240BB6A5
:100E30000F922F933F934F935F936F937F938F9373
:100E40009F93AF93BF93EF93FF93E091C102F09113
:100E5000C202309749F0A685B7858585968D91FFAA
:100E600016C09C918923B1F4FF91EF91BF91AF918E
:100E70009F918F917F916F915F914F913F912F91B2
:100E80000F900BBE0F900FBE0F901F9018959C9166
:100E9000892351F7A389B4899C91858980958923F9
:100EA0008C93868997890197F1F7608D718DA6855E
:100EB000B785558538E020E0CB010197F1F7822F07
:100EC00090E095958795282F4C91452309F020684F
:100ED000315091F7868D81FD20958091C00290E080
:100EE00001968F7399273091BF02381799F0A0911E
:100EF000C002B0E0AA58BD4F2C938093C002828DEF
:100F0000938D0197F1F7A389B4898C919589892BE9
:100F10008C93AACF868D8160868FF1CF10924A0381
:100F20001092490388EE93E0A0E0B0E080934B0379
:100F300090934C03A0934D03B0934E032AE432E008
:100F4000309348032093470325EC30E0309354035B
:100F50002093530324EC30E0309356032093550341
:100F600020EC30E0309358032093570321EC30E01D
:100F700030935A032093590322EC30E030935C0302
:100F800020935B0326EC30E030935E0320935D03F7
:100F90001092600310926103109262031092630337
:100FA0001092E7031092E6038093E8039093E9031D
:100FB000A093EA03B093EB038CE592E09093E503F2
:100FC0008093E4031092FB031092FA031092FD0346
:100FD0001092FC031092FF031092FE031092010482
:100FE00010920004609102046E7F6D7F6093020492
:100FF0006695617081E068278FE30E94900361E04D
:101000008FE30E94BE03EDE7F2E0E491E093F40386
:10101000E7E3F2E0E491F0E0EE0FFF1FE252FE4F53
:10102000859194919093F6038093F50360E08EE3AD
:101030000E94BE038091020481FD04C061E08EE342
:101040000E9490038EE38093F003ECE7F2E0E491DA
:10105000E093F103E6E3F2E0E491F0E0EE0FFF1F2E
:10106000EC53FE4F859194919093F3038093F20398
:101070000895789484B5826084BD84B5816084BD10
:1010800085B5826085BD85B5816085BD80916E0026
:10109000816080936E001092810080918100826057
:1010A0008093810080918100816080938100809194
:1010B00080008160809380008091B1008460809383
:1010C000B1008091B00081608093B0008091910068
:1010D0008260809391008091910081608093910063
:1010E000809190008160809390008091A100826047
:1010F0008093A1008091A10081608093A1008091E4
:10110000A00081608093A000809121018260809383
:101110002101809121018160809321018091200132
:1011200081608093200180917A00846080937A00AE
:1011300080917A00826080937A0080917A00816049
:1011400080937A0080917A00806880937A00109270
:10115000C10061E087E00E94BE0361E086E00E947A
:10116000BE0361E085E00E94BE0361E084E00E946E
:10117000BE0361E08BE00E94BE0361E08AE00E9452
:10118000BE0361E089E00E94BE0361E088E00E9446
:10119000BE0361E08FE00E94BE0361E08EE00E942A
:1011A000BE0361E08DE00E94BE0361E08CE00E941E
:1011B000BE0361E087E10E94BE0361E086E10E9418
:1011C000BE0361E085E10E94BE0361E084E10E940C
:1011D000BE0361E08BE10E94BE0361E08AE10E94F0
:1011E000BE0361E089E10E94BE0361E088E10E94E4
:1011F000BE0360E080E20E94BE0360E081E20E94E4
:10120000BE0360E082E20E94BE0360E083E20E94CF
:10121000BE0360E084E20E94BE0360E088E20E94B8
:10122000BE0360E089E20E94BE0360E08AE20E94A1
:10123000BE0361E087E20E94BE0361E086E20E9495
:10124000BE0361E085E20E94BE0361E087E20E9486
:10125000900361E086E20E94900361E085E20E94D3
:101260009003E0915703F091580382E08083E0916E
:101270005303F09154031082E0915503F09156030B
:1012800080E1808310925F03E0915B03F0915C0347
:1012900086E08083E0915903F0915A038081806158
:1012A0008083E0915903F0915A03808188608083A4
:1012B000E0915903F0915A03808180688083E09126
:1012C0005903F0915A0380818F7D80831092FF0330
:1012D0001092FE031092FD031092FC031092FB0388
:1012E0001092FA0382E490E090930104809300044A
:1012F0008091F00396EF980F943048F02EEC280F71
:10130000243028F022EC280F283008F061C02FE0AC
:1013100030E03093FB032093FA0320E430E0309375
:10132000FD032093FC0327E230E03093FF0320937A
:10133000FE03943050F02EEC280F243030F022ECD5
:10134000280FF0E0E0E0283010F4E8E6F0E020813B
:10135000943028F032EC380F383008F423C131E0F3
:10136000232B943048F09EEC980F943028F08E5345
:10137000F0E0E0E0883010F4E8E6F0E0208320912F
:10138000F00336EF320F343008F40EC18EEC820FCA
:10139000843008F409C182EC820F883008F007C15C
:1013A0008DE690E09093F8038093F703343008F0D3
:1013B00001C12650330B81E001C0880F2A95EAF75E
:1013C0008093F90380910004909101040197F1F753
:1013D0008091FE039091FF03892B49F1E091C102B6
:1013E000F091C20283E0E43EF80709F1309739F04A
:1013F000A389B4899C918589809589238C93809158
:1014000002048E7F809302041092C0021092BF02E9
:1014100084EE93E09093C2028093C102E091F703BF
:10142000F091F80380819091F903892B808386E6FF
:10143000B82E9CE6A92EEE24E394F12C32E0C32EC4
:10144000D12C84EE93E00E94BB04EC01892B09F4BB
:1014500048C08091FD029091FE02892B09F4C2C020
:101460008091FD029091FE02019719F5E7970CF12A
:1014700046E350E065EC72E084EE93E00E94770171
:1014800084EE93E00E94D3048336910509F0B7C03F
:10149000B092C302A092C402B092FB02B092FC02CE
:1014A0008091FD029091FE0201969093FE0280933E
:1014B000FD028091FD029091FE02029791F487E473
:1014C00093E00E94F901CB9764F01092FE02109213
:1014D000FD024AE350E063EC72E087E493E00E948F
:1014E000CC0188E20E94670320910402309105023A
:1014F000892B09F098C02130310509F085C0109280
:1015000005021092040289E20E9467032091020200
:1015100030910302892B09F0A1C02130310509F077
:101520008EC010920302109202028AE20E946703A8
:101530002091000230910102892B09F0AAC02130CC
:10154000310509F097C0109201021092000200913B
:101550004503109146030115110509F4EEC0809171
:101560004303909144038133910509F0B3C0C5E072
:10157000D3E0CE0185509340801791070CF099C0BD
:101580006981062E000C770B8881082E000C990BC0
:101590000E94F70464EF71E080E090E00E94140480
:1015A0002296E7CF34E0DCCE8BE690E0FBCE90E0F5
:1015B00080E0F8CE88E0223309F402CF84E02333C0
:1015C00009F4FECE82E0243309F4FACE82EC820FD5
:1015D000883018F42E53330BEECE81E0F1CE2097F5
:1015E00009F43ECF219784EE93E00E94D304823623
:1015F0009105A9F7F092FE02E092FD0231CF109220
:10160000FE021092FD0255CF2115310529F4D0922A
:101610000502C092040277CF2F5F3F4F309305023F
:101620002093040270CF2630310524F08AE692E040
:101630000E945B06F0920502E092040264CF21153D
:10164000310529F4D0920302C09202026ECF2F5FBF
:101650003F4F309303022093020267CF26303105BB
:1016600024F08EE692E00E945B06F0920302E09284
:1016700002025BCF2115310529F4D0920102C092FC
:10168000000265CF2F5F3F4F30930102209300028D
:101690005ECF2630310544F0F0920403E09203035C
:1016A00082E792E00E945B06F0920102E092000263
:1016B0004ECF109246031092450387E493E00E94B8
:1016C000AF0264E670E080E090E00E9414040E94A3
:1016D000CF02B7CEC297A9F780910303909104037C
:1016E000019779F7C0910103D0910203FE01EB5FEE
:1016F000FC4F6181062E000C770B8081082E000CB8
:10170000990B0E94F7042296C017D1074CF4D0938E
:101710000203C09301031092040310920303D1CF7C
:101720001092020310920103109246031092450397
:1017300087E493E00E94AF02EECF87E493E00E943B
:101740002A02EC01892B09F4BCCF8091FF02909111
:1017500000038130910589F0D4F5892B09F0B1CFD0
:10176000219787E493E00E9408028636910509F0EC
:1017700053C0F0920003E092FF021C161D060CF00D
:10178000A0CF87E493E00E940802909344038093E3
:10179000430321978091FF0290910003019690935B
:1017A00000038093FF021C161D060CF08ACF87E40D
:1017B00093E00E9408028C0121978091FF02909192
:1017C00000030196909300038093FF0206C08230CD
:1017D000910549F3039709F074CF0C171D070CF01E
:1017E00070CF0115110509F46CCFA80165E073E015
:1017F00087E493E00E94770187E493E00E94080267
:101800008336910521F4109346030093450310920B
:1018100000031092FF0255CF209709F0A1CF51CFBE
:101820008CE592E09093E5038093E4038091C102FC
:101830009091C202845E934071F4E091F703F091BD
:10184000F80390818091F903809589238083109219
:10185000C2021092C102089597FB072E16F400945D
:1018600007D077FD09D00E94480C07FC05D03EF454
:10187000909581959F4F0895709561957F4F08953C
:10188000EE0FFF1F881F8BBF0790F691E02D199474
:10189000AA1BBB1B51E107C0AA1FBB1FA617B70796
:1018A00010F0A61BB70B881F991F5A95A9F78095B2
:1018B0009095BC01CD01089511E0C3E4D1E000E0B2
:1018C00006C0802FFE010E94400C2196011DC434E9
:0C18D000D10780E00807A9F7F894FFCFCB
:1018DC0001000100010001000000000000000100F7
:1018EC0000000100000000000000010000000000EA
:1018FC0001000100000000000100000000000000D9
:10190C0001000000010000000000000001000100C7
:10191C00000000000100000000006202CC01F9018F
:10192C00AF022A0208021C02000000005F04CC0176
:10193C00F4045E04BB04D3044604525354005255C1
:06194C004E005241540060
:00000001FF
