:020000040000FA
:100000000C9444010C9475010C9475010C947501C9
:100010000C9475010C9475010C9475010C94750188
:100020000C9475010C9412070C9412070C9412078F
:100030000C9475010C9475010C9475010C94750168
:100040000C9475010C9475010C9475010C94750158
:100050000C9475010C9475010C9475010C94C806F0
:100060000C9475010C9492060C9468060C9475011E
:100070000C9475010C9475010C9475010C94750128
:100080000C9475010C9475010C9475010C94750118
:100090000C9475010C9475010C9475010C94750108
:1000A0000C9475010C9475010C9475010C947501F8
:1000B0000C9475010C9475010C9475010C947501E8
:1000C0000C9475010C9475010C9475010C947501D8
:1000D0000C9475010C9475010C9475010C947501C8
:1000E0000C9475010C94CC010C94D3040C94430330
:1000F0000C9424030C9430030C948E070C94F90197
:100100000C94100C0C9451030C941C020C944B0393
:100110000C9462020C9408020C9433030C945E035A
:100120000C94F4040C9428030C942A020C9463039A
:100130000C94AF020C9455030C9439030C9459039E
:100140000C943D030C9447030C94BB040C945E0484
:100150000C9446040C942C030C945F030C941E0323
:100160000C945F0400002100240027002A002D00C9
:100170003000330001010000040107010A01000002
:100180000A0B02090C0D0E08070304010000000011
:10019000000000000000000000000000000000005F
:1001A000000000000000000000001211100000001C
:1001B000000000000000000000000000000000003F
:1001C00000000000000020002300260029002C0071
:1001D0002F003200000100000301060109010000A8
:1001E0002200250028002B002E00310034000201DF
:1001F0000000050108010B010505050507050808B4
:100200000808020202020A0A0808040404040101A0
:1002100001010101010103030303030303030407B5
:1002200007070C0C0C0C0C0C0C0C0202020206064C
:100230000606060606060B0B0B0B0B0B0B0B01023F
:1002400010202008081020401020408002010201E8
:1002500008040201010204081020408080402010A0
:1002600008040201800402018040201008040201F9
:100270000804020101020408102040800102040861
:10028000102040808E07100C11241FBECFEFD1E24A
:10029000DEBFCDBF00E00CBF24E0A6E7B2E001C0A6
:1002A0001D92A330B207E1F712E0A0E0B2E0ECED5E
:1002B000F8E100E00BBF02C007900D92A637B1072E
:1002C000D9F711E0C3E4D1E000E006C021970109AD
:1002D000802FFE010E94400CC234D10780E0080745
:1002E000A9F70E9439080C945C0C0C940000CF9282
:1002F000DF92EF92FF920F931F93CF93DF93EC0166
:100300006A017B0110E000E02FB7F8948091BB02F6
:100310009091BC02A091BD02B091BE022FBF888710
:100320009987AA87BB87E881F9810284F385E02D4C
:10033000CE01199597FF26C02FB7F8948091BB0284
:100340009091BC02A091BD02B091BE022FBF488522
:1003500059856A857B85841B950BA60BB70B4C8151
:100360005D816E817F8184179507A607B707D8F254
:10037000C801DF91CF911F910F91FF90EF90DF9017
:10038000CF900895F70181937F010F5F1F4FC01633
:10039000D10609F0B9CFECCFAF92BF92CF92DF92E6
:1003A000EF92FF920F931F93CF93DF936C017B012A
:1003B0008B01040F151FEB015E01AE18BF08C017BB
:1003C000D10759F06991D601ED91FC910190F0812E
:1003D000E02DC6011995892B79F7C501DF91CF91E1
:1003E0001F910F91FF90EF90DF90CF90BF90AF9053
:1003F0000895FC01538D448D252F30E0842F90E02B
:10040000821B930B541710F0CF960895019708950F
:10041000FC01918D828D981761F0A28DAE0FBF2FD8
:10042000B11D5D968C91928D9F5F9F73928F90E02E
:1004300008958FEF9FEF0895FC01918D828D98179D
:1004400031F0828DE80FF11D858D90E008958FEFDA
:100450009FEF0895FC01918D228D892F90E0805CA3
:100460009F4F821B91098F739927089587E493E02A
:100470000E942A0221E0892B09F420E0822F0895AE
:10048000FC01A48DA80FB92FB11DA35ABF4F2C9109
:10049000848D90E001968F739927848FA689B78900
:1004A0002C93A089B1898C91837080648C93938DF7
:1004B000848D981306C00288F389E02D80818F7D9A
:1004C00080830895EF92FF920F931F93CF93DF9352
:1004D000EC0181E0888F9B8D8C8D98131AC0E88980
:1004E000F989808185FF15C09FB7F894EE89FF894F
:1004F0006083E889F98980818370806480839FBFED
:1005000081E090E0DF91CF911F910F91FF90EF90EC
:100510000895F62E0B8D10E00F5F1F4F0F731127FC
:10052000E02E8C8D8E110CC00FB607FCFACFE88937
:10053000F989808185FFF5CFCE010E944002F1CF7D
:10054000EB8DEC0FFD2FF11DE35AFF4FF0829FB7AB
:10055000F8940B8FEA89FB8980818062CFCFCF939B
:10056000DF93EC01888D8823B9F0AA89BB89E889DB
:10057000F9898C9185FD03C0808186FD0DC00FB681
:1005800007FCF7CF8C9185FFF2CF808185FFEDCFFF
:10059000CE010E944002E9CFDF91CF91089580E023
:1005A00090E0892B29F00E94360281110E94000000
:1005B00080E090E0892B49F080E090E0892B29F0E1
:1005C0000E94000081110E94000080E090E0892BD1
:1005D00049F080E090E0892B29F00E940000811111
:1005E0000E94000080E090E0892B49F080E090E0DC
:1005F000892B29F00E94000081110C9400000895BD
:100600008150823108F05AC0E82FF0E08827E45F7B
:10061000FC4F8F4F0C94400C2C0330031E0324031B
:1006200028035E03330339033D03430347034B03AE
:10063000510355035E0359035F03630380918000F8
:100640008F77809380000895809180008F7DF9CF0F
:1006500080918000877FF5CF84B58F7784BD089522
:1006600084B58F7DFBCF8091B0008F778093B000F1
:1006700008958091B0008F7DF9CF809190008F77A1
:10068000809390000895809190008F7DF9CF8091A4
:100690009000877FF5CF8091A0008F778093A00096
:1006A00008958091A0008F7DF9CF8091A000877F71
:1006B000F5CF809120018F7780932001089580915C
:1006C00020018F7DF9CF80912001877FF5CFCF93D7
:1006D000DF93282F30E0F901E258FE4F8491F901B1
:1006E000E25CFD4FD491F901E850FE4FC491CC2358
:1006F000A1F081110E940003EC2FF0E0EE0FFF1F2C
:10070000EC53FE4FA591B491EC91ED2381E090E084
:1007100009F480E0DF91CF91089580E090E0FACF76
:100720001F93CF93DF93282F30E0F901E258FE4F5B
:100730008491F901E25CFD4FD491F901E850FE4F3C
:10074000C491CC23A9F0162F81110E940003EC2F35
:10075000F0E0EE0FFF1FE252FE4FA591B4918FB76C
:10076000F894EC91111108C0D095DE23DC938FBF73
:10077000DF91CF911F910895DE2BF8CFCF93DF93B8
:1007800090E0FC01E25CFD4F249188509E4FFC01FB
:1007900084918823D1F090E0880F991FFC01EC59D7
:1007A000FE4FA591B491FC01E252FE4FC591D49148
:1007B00061110EC09FB7F8948C91E22FE0958E23C3
:1007C0008C932881E223E8839FBFDF91CF91089526
:1007D0008FB7F894EC91E22BEC938FBFF6CF3FB735
:1007E000F8948091B7029091B802A091B902B091AB
:1007F000BA0226B5A89B05C02F3F19F00196A11D8E
:10080000B11D3FBFBA2FA92F982F8827BC01CD015A
:10081000620F711D811D911D42E0660F771F881FB9
:10082000991F4A95D1F708958F929F92AF92BF92E8
:10083000CF92DF92EF92FF924B015C010E94EF0397
:100840006B017C010E94EF036C197D098E099F09E1
:10085000683E734081059105A8F321E0821A910852
:10086000A108B10888EEC80E83E0D81EE11CF11C77
:1008700081149104A104B10429F7FF90EF90DF9057
:10088000CF90BF90AF909F908F9008952091C1021C
:100890003091C2022817390771F49091BF028091FC
:1008A000C002981741F0E091BF02F0E0EA58FD4F16
:1008B000808190E008958FEF9FEF08950895EF9263
:1008C000FF920F931F93CF93DF93DC015C96ED9023
:1008D000FC905D97E114F10479F481E090E01396C7
:1008E0009C938E93129790E080E0DF91CF911F91BF
:1008F0000F91FF90EF9008955196ED91FC915297D2
:1009000050968C915097982F90950FB75E962C919A
:100910005E97122F127021FD6095F89420811123AB
:1009200019F1282B2083E7012197F1F728E0462FC2
:1009300050E0308160FF1AC0382B3083E7012197E7
:10094000F1F7BA0175956795215089F7112381F068
:100950008081892380830FBF5C968D919C91019744
:10096000F1F781E090E0C1CF2923DCCF3923E5CF37
:100970009081892BEFCF2091C1023091C2022817BC
:10098000390771F48091C0022091BF0290E0805C31
:100990009F4F821B910960E470E00E942C0C089527
:1009A00090E080E008952091C1023091C2022817A2
:1009B0003907B9F49091BF028091C002981789F06D
:1009C000E091BF02F0E0EA58FD4F80812091BF0224
:1009D00030E02F5F3F4F2F7333272093BF0290E00B
:1009E00008958FEF9FEF089590E080E008954F9273
:1009F0005F926F927F928F929F92AF92BF92CF92AF
:100A0000DF92EF92FF920F931F93CF93DF93863481
:100A1000910509F4C1C0C4F48234910509F4C5C03C
:100A20008434910509F1DF91CF911F910F91FF90CF
:100A3000EF90DF90CF90BF90AF909F908F907F907E
:100A40006F905F904F9008958C34910509F4B6C073
:100A50008235910541F7F2E27F2EACE08A2EBDE0AF
:100A60009B2E0EE01FE008C0C0E27C2ED4E08D2E4D
:100A700015E0912E06E017E0CB018D7F019709F478
:100A8000A6C0DFEAAD2EB12C6230710561F66B01B4
:100A9000D0E0C0E07E0123E0C216D10409F09BC083
:100AA000E094F09437E0E322FF24B3E0EE0CFF1C67
:100AB000BA95E1F7C7018A5F9D4F7C01F70160811C
:100AC000812F0E949003F7016281802F0E94900382
:100AD000F7016481892D0E949003F7016681882DBA
:100AE0000E94900361E070E080E090E00E941404B6
:100AF0002196AC16BD0671F6E8E04E2E512CF7E0BB
:100B0000AF2EB12CC830D10509F472C02196872DC3
:100B10000E946703892B09F098C02E01FAE04F0E5E
:100B2000511C68E0662E712C77E0A72EB12C4C1674
:100B30005D0609F46AC0CE01B3010E942C0C23E0CB
:100B4000C216D10409F057C07501E81AF90A53E03A
:100B5000EE0CFF1C5A95E1F7C7018A5F9D4F7C019F
:100B6000F7016081812F0E949003F7016281802F3D
:100B70000E949003F7016481892D0E949003F70180
:100B80006681882D0E94900361E070E080E090E033
:100B90000E9414042196CBCF43E2742E54E1852E9B
:100BA000E5E19E2E06E117E167CF94E2792E28E178
:100BB000822E39E1932E0AE11BE15ECF11E2712E04
:100BC00008E0802E89E0982E0AE01BE055CFC5E5AD
:100BD000AC2EB12C5CCFF7E0EF22FF24A3E0EE0CAB
:100BE000FF1CAA95E1F797012A5F3D4F790166CF77
:100BF000D0E0C0E08CCF43E0880F991F4A95E1F721
:100C00009C012A5F3D4F7901ABCF60E0812F0E94AC
:100C1000900360E0802F0E94900360E0892D0E9485
:100C2000900360E0882DDF91CF911F910F91FF908D
:100C3000EF90DF90CF90BF90AF909F908F907F907C
:100C40006F905F904F900C949003CE01B2010E9480
:100C50002C0CF3E0CF16D10439F57501E81AF90A26
:100C600033E0EE0CFF1C3A95E1F797012A5F3D4F08
:100C70007901F9016081812F0E949003F70162815F
:100C8000802F0E949003F7016481892D0E949003B8
:100C9000F7016681882D0E94900361E070E080E09A
:100CA00090E00E9414042ECF23E0880F991F2A950C
:100CB000E1F79C01DBCFFC0101900020E9F73197BF
:100CC000AF01481B590BBC0184EE93E00C94CC019E
:100CD0001F920F920FB60F9211240BB60F922F9303
:100CE0003F934F935F936F937F938F939F93AF93B4
:100CF000BF93EF93FF9387E493E00E944002FF913C
:100D0000EF91BF91AF919F918F917F916F915F9183
:100D10004F913F912F910F900BBE0F900FBE0F90F0
:100D20001F9018951F920F920FB60F9211240BB6B9
:100D30000F922F938F939F93EF93FF93E09157031D
:100D4000F09158038081E0915D03F0915E0382FD94
:100D50001DC09081809160038F5F8F73209161032C
:100D6000821741F0E0916003F0E0E95BFC4F958F62
:100D700080936003FF91EF919F918F912F910F903E
:100D80000BBE0F900FBE0F901F9018958081F2CF71
:100D90001F920F920FB60F9211242F933F938F93B0
:100DA0009F93AF93BF938091BB029091BC02A0919F
:100DB000BD02B091BE023091B60223E0230F2D3761
:100DC00058F50196A11DB11D2093B6028093BB0278
:100DD0009093BC02A093BD02B093BE028091B70273
:100DE0009091B802A091B902B091BA020196A11DEA
:100DF000B11D8093B7029093B802A093B902B0934B
:100E0000BA02BF91AF919F918F913F912F910F9017
:100E10000FBE0F901F90189526E8230F0296A11D74
:100E2000B11DD2CF1F920F920FB60F9211240BB6A5
:100E30000F922F933F934F935F936F937F938F9373
:100E40009F93AF93BF93EF93FF93E091C102F09113
:100E5000C202309749F0A685B7858585968D91FFAA
:100E600016C09C918923B1F4FF91EF91BF91AF918E
:100E70009F918F917F916F915F914F913F912F91B2
:100E80000F900BBE0F900FBE0F901F9018959C9166
:100E9000892351F7A389B4899C91858980958923F9
:100EA0008C93868997890197F1F7608D718DA6855E
:100EB000B785558538E020E0CB010197F1F7822F07
:100EC00090E095958795282F4C91452309F020684F
:100ED000315091F7868D81FD20958091C00290E080
:100EE00001968F7399273091BF02381799F0A0911E
:100EF000C002B0E0AA58BD4F2C938093C002828DEF
:100F0000938D0197F1F7A389B4898C919589892BE9
:100F10008C93AACF868D8160868FF1CF10924A0381
:100F20001092490388EE93E0A0E0B0E080934B0379
:100F300090934C03A0934D03B0934E032AE432E008
:100F4000309348032093470325EC30E0309354035B
:100F50002093530324EC30E0309356032093550341
:100F600020EC30E0309358032093570321EC30E01D
:100F700030935A032093590322EC30E030935C0302
:100F800020935B0326EC30E030935E0320935D03F7
:100F90001092600310926103109262031092630337
:100FA0001092E7031092E6038093E8039093E9031D
:100FB000A093EA03B093EB038CE592E09093E503F2
:100FC0008093E4031092FB031092FA031092FD0346
:100FD0001092FC031092FF031092FE031092010482
:100FE00010920004609102046E7F6D7F6093020492
:100FF0006695617081E068278FE30E94900361E04D
:101000008FE30E94BE03EDE7F2E0E491E093F40386
:10101000E7E3F2E0E491F0E0EE0FFF1FE252FE4F53
:10102000859194919093F6038093F50360E08EE3AD
:101030000E94BE038091020481FD04C061E08EE342
:101040000E9490038EE38093F003ECE7F2E0E491DA
:10105000E093F103E6E3F2E0E491F0E0EE0FFF1F2E
:10106000EC53FE4F859194919093F3038093F20398
:101070000895789484B5826084BD84B5816084BD10
:1010800085B5826085BD85B5816085BD80916E0026
:10109000816080936E001092810080918100826057
:1010A0008093810080918100816080938100809194
:1010B00080008160809380008091B1008460809383
:1010C000B1008091B00081608093B0008091910068
:1010D0008260809391008091910081608093910063
:1010E000809190008160809390008091A100826047
:1010F0008093A1008091A10081608093A1008091E4
:10110000A00081608093A000809121018260809383
:101110002101809121018160809321018091200132
:1011200081608093200180917A00846080937A00AE
:1011300080917A00826080937A0080917A00816049
:1011400080937A0080917A00806880937A00109270
:10115000C10061E087E00E94BE0361E086E00E947A
:10116000BE0361E085E00E94BE0361E084E00E946E
:10117000BE0361E08BE00E94BE0361E08AE00E9452
:10118000BE0361E089E00E94BE0361E088E00E9446
:10119000BE0361E08FE00E94BE0361E08EE00E942A
:1011A000BE0361E08DE00E94BE0361E08CE00E941E
:1011B000BE0361E087E10E94BE0361E086E10E9418
:1011C000BE0361E085E10E94BE0361E084E10E940C
:1011D000BE0361E08BE10E94BE0361E08AE10E94F0
:1011E000BE0361E089E10E94BE0361E088E10E94E4
:1011F000BE0360E080E20E94BE0360E081E20E94E4
:10120000BE0360E082E20E94BE0360E083E20E94CF
:10121000BE0360E084E20E94BE0360E088E20E94B8
:10122000BE0360E089E20E94BE0360E08AE20E94A1
:10123000BE0361E087E20E94BE0361E086E20E9495
:10124000BE0361E085E20E94BE0361E087E20E9486
:10125000900361E086E20E94900361E085E20E94D3
:101260009003E0915703F091580382E08083E0916E
:101270005303F09154031082E0915503F09156030B
:1012800080E1808310925F03E0915B03F0915C0347
:1012900086E08083E0915903F0915A038081806158
:1012A0008083E0915903F0915A03808188608083A4
:1012B000E0915903F0915A03808180688083E09126
:1012C0005903F0915A0380818F7D80831092FF0330
:1012D0001092FE031092FD031092FC031092FB0388
:1012E0001092FA0382E490E090930104809300044A
:1012F0008091F00396EF980F943048F02EEC280F71
:10130000243028F022EC280F283008F061C02FE0AC
:1013100030E03093FB032093FA0320E430E0309375
:10132000FD032093FC0327E230E03093FF0320937A
:10133000FE03943050F02EEC280F243030F022ECD5
:10134000280FF0E0E0E0283010F4E8E6F0E020813B
:10135000943028F032EC380F383008F423C131E0F3
:10136000232B943048F09EEC980F943028F08E5345
:10137000F0E0E0E0883010F4E8E6F0E0208320912F
:10138000F00336EF320F343008F40EC18EEC820FCA
:10139000843008F409C182EC820F883008F007C15C
:1013A0008DE690E09093F8038093F703343008F0D3
:1013B00001C12650330B81E001C0880F2A95EAF75E
:1013C0008093F90380910004909101040197F1F753
:1013D0008091FE039091FF03892B49F1E091C102B6
:1013E000F091C20283E0E43EF80709F1309739F04A
:1013F000A389B4899C918589809589238C93809158
:1014000002048E7F809302041092C0021092BF02E9
:1014100084EE93E09093C2028093C102E091F703BF
:10142000F091F80380819091F903892B808386E6FF
:10143000B82E9CE6A92EEE24E394F12C32E0C32EC4
:10144000D12C84EE93E00E94BB04EC01892B09F4BB
:1014500048C08091FD029091FE02892B09F4C2C020
:101460008091FD029091FE02019719F5E7970CF12A
:1014700046E350E065EC72E084EE93E00E94770171
:1014800084EE93E00E94D3048336910509F0B7C03F
:10149000B092C302A092C402B092FB02B092FC02CE
:1014A0008091FD029091FE0201969093FE0280933E
:1014B000FD028091FD029091FE02029791F487E473
:1014C00093E00E94F901CB9764F01092FE02109213
:1014D000FD024AE350E063EC72E087E493E00E948F
:1014E000CC0188E20E94670320910402309105023A
:1014F000892B09F098C02130310509F085C0109280
:1015000005021092040289E20E9467032091020200
:1015100030910302892B09F0A1C02130310509F077
:101520008EC010920302109202028AE20E946703A8
:101530002091000230910102892B09F0AAC02130CC
:10154000310509F097C0109201021092000200913B
:101550004503109146030115110509F4EEC0809171
:101560004303909144038133910509F0B3C0C5E072
:10157000D3E0CE0185509340801791070CF099C0BD
:101580006981062E000C770B8881082E000C990BC0
:101590000E94F70464EF71E080E090E00E94140480
:1015A0002296E7CF34E0DCCE8BE690E0FBCE90E0F5
:1015B00080E0F8CE88E0223309F402CF84E02333C0
:1015C00009F4FECE82E0243309F4FACE82EC820FD5
:1015D000883018F42E53330BEECE81E0F1CE2097F5
:1015E00009F43ECF219784EE93E00E94D304823623
:1015F0009105A9F7F092FE02E092FD0231CF109220
:10160000FE021092FD0255CF2115310529F4D0922A
:101610000502C092040277CF2F5F3F4F309305023F
:101620002093040270CF2630310524F08AE692E040
:101630000E945B06F0920502E092040264CF21153D
:10164000310529F4D0920302C09202026ECF2F5FBF
:101650003F4F309303022093020267CF26303105BB
:1016600024F08EE692E00E945B06F0920302E09284
:1016700002025BCF2115310529F4D0920102C092FC
:10168000000265CF2F5F3F4F30930102209300028D
:101690005ECF2630310544F0F0920403E09203035C
:1016A00082E792E00E945B06F0920102E092000263
:1016B0004ECF109246031092450387E493E00E94B8
:1016C000AF0264E670E080E090E00E9414040E94A3
:1016D000CF02B7CEC297A9F780910303909104037C
:1016E000019779F7C0910103D0910203FE01EB5FEE
:1016F000FC4F6181062E000C770B8081082E000CB8
:10170000990B0E94F7042296C017D1074CF4D0938E
:101710000203C09301031092040310920303D1CF7C
:101720001092020310920103109246031092450397
:1017300087E493E00E94AF02EECF87E493E00E943B
:101740002A02EC01892B09F4BCCF8091FF02909111
:1017500000038130910589F0D4F5892B09F0B1CFD0
:10176000219787E493E00E9408028636910509F0EC
:1017700053C0F0920003E092FF021C161D060CF00D
:10178000A0CF87E493E00E940802909344038093E3
:10179000430321978091FF0290910003019690935B
:1017A00000038093FF021C161D060CF08ACF87E40D
:1017B00093E00E9408028C0121978091FF02909192
:1017C00000030196909300038093FF0206C08230CD
:1017D000910549F3039709F074CF0C171D070CF01E
:1017E00070CF0115110509F46CCFA80165E073E015
:1017F00087E493E00E94770187E493E00E94080267
:101800008336910521F4109346030093450310920B
:1018100000031092FF0255CF209709F0A1CF51CFBE
:101820008CE592E09093E5038093E4038091C102FC
:101830009091C202845E934071F4E091F703F091BD
:10184000F80390818091F903809589238083109219
:10185000C2021092C102089597FB072E16F400945D
:1018600007D077FD09D00E94480C07FC05D03EF454
:10187000909581959F4F0895709561957F4F08953C
:10188000EE0FFF1F881F8BBF0790F691E02D199474
:10189000AA1BBB1B51E107C0AA1FBB1FA617B70796
:1018A00010F0A61BB70B881F991F5A95A9F78095B2
:1018B0009095BC01CD01089511E0C3E4D1E000E0B2
:1018C00006C0802FFE010E94400C2196011DC434E9
:1018D000D10780E00807A9F7F894FFCF01000100C5
:1018E00001000100000000000000010000000100F4
:1018F00000000000000001000000000001000100E5
:1019000000000000010000000000000001000000D5
:1019100001000000000000000100010000000000C4
:101920000100000000006202CC01F901AF022A02AE
:1019300008021C02000000005F04CC01F4045E04F5
:10194000BB04D30446045253540052554E00524136
:02195000540041
:10E000000D9489F10D94B2F10D94B2F10D94B2F129
:10E010000D94B2F10D94B2F10D94B2F10D94B2F1F0
:10E020000D94B2F10D94B2F10D94B2F10D94B2F1E0
:10E030000D94B2F10D94B2F10D94B2F10D94B2F1D0
:10E040000D94B2F10D94B2F10D94B2F10D94B2F1C0
:10E050000D94B2F10D94B2F10D94B2F10D94B2F1B0
:10E060000D94B2F10D94B2F10D94B2F10D94B2F1A0
:10E070000D94B2F10D94B2F10D94B2F10D94B2F190
:10E080000D94B2F10D94B2F10D94B2F10D94B2F180
:10E090000D94B2F10D94B2F10D94B2F10D94B2F170
:10E0A0000D94B2F10D94B2F10D94B2F10D94B2F160
:10E0B0000D94B2F10D94B2F10D94B2F10D94B2F150
:10E0C0000D94B2F10D94B2F10D94B2F10D94B2F140
:10E0D0000D94B2F10D94B2F10D94B2F10D94B2F130
:10E0E0000D94B2F141546D656761323536300041AF
:10E0F000726475696E6F206578706C6F72657220DE
:10E1000073746B3530305632206279204D4C530099
:10E11000426F6F746C6F616465723E004875683F52
:10E1200000436F6D70696C6564206F6E203D200048
:10E130004350552054797065202020203D20005FF9
:10E140005F4156525F415243485F5F3D2000415658
:10E1500052204C696243205665723D20004743437C
:10E160002056657273696F6E203D20004350552024
:10E1700049442020202020203D20004C6F7720663D
:10E18000757365202020203D20004869676820665F
:10E190007573652020203D200045787420667573D6
:10E1A00065202020203D20004C6F636B2066757336
:10E1B000652020203D20004D617220203720323024
:10E1C000313300312E362E3800342E332E350056A2
:10E1D00023202020414444522020206F7020636F70
:10E1E00064652020202020696E73747275637469E1
:10E1F0006F6E2061646472202020496E74657272B3
:10E20000757074006E6F20766563746F7200726A49
:10E210006D702020006A6D70200057686174207056
:10E220006F72743A00506F7274206E6F7420737541
:10E2300070706F72746564004D7573742062652030
:10E2400061206C6574746572002000577269747483
:10E25000696E672045450052656164696E672045B7
:10E26000450045452065727220636E743D00504F35
:10E27000525400303D5A65726F2061646472003FF1
:10E280003D43505520737461747300403D454550C3
:10E29000524F4D207465737400423D426C696E6B41
:10E2A000204C454400453D44756D70204545505215
:10E2B0004F4D00463D44756D7020464C415348001B
:10E2C000483D48656C70004C3D4C69737420492F83
:10E2D0004F20506F72747300513D51756974005234
:10E2E0003D44756D702052414D00563D73686F7707
:10E2F00020696E7465727275707420566563746FF0
:10E30000727300593D506F727420626C696E6B00BD
:10E310002A0011241FBECFEFD1E2DEBFCDBF01E046
:10E320000CBF12E0A0E0B2E0EEE1FDEF03E00BBFB6
:10E3300002C007900D92A030B107D9F712E0A0E01B
:10E34000B2E001C01D92AE30B107E1F70F9460F367
:10E350000D948DFE01E20EBF0FEF0DBF11241FBE05
:10E360000D9460F30D9400F020E030E040ED57E0B4
:10E3700005C0FA013197F1F72F5F3F4F2817390792
:10E38000C0F308959C01260F311DC901A0E0B0E043
:10E390002F5F3F4FABBFFC018791882361F08093D3
:10E3A000C6008091C00086FFFCCF8091C0008064D1
:10E3B0008093C000EACF08958DE08093C6008091DD
:10E3C000C00086FFFCCF8091C00080648093C000B5
:10E3D0008AE08093C6008091C00086FFFCCF8091C8
:10E3E000C00080648093C00008950F94C2F10F9420
:10E3F000DCF10895FC019081992359F09093C600B7
:10E400008091C00086FFFCCF8091C0008064809323
:10E41000C0003196992379F70895282F982F929567
:10E420009F70892F805D8A3308F0895F8093C600D2
:10E430008091C00086FFFCCF8091C00080648093F3
:10E44000C000822F8F70982F905D9A3308F0995FEB
:10E450009093C6008091C00086FFFCCF8091C000E1
:10E4600080648093C00008959C01FB01853691056E
:10E470001CF46330710594F0C90164E670E00F94F8
:10E480002EFE605D7F4F6093C6008091C00086FFC6
:10E49000FCCF8091C00080648093C0002B30310598
:10E4A00014F43297B4F0C90164E670E00F942EFEC4
:10E4B0006AE070E00F942EFE605D7F4F6093C600AF
:10E4C0008091C00086FFFCCF8091C0008064809363
:10E4D000C000C9016AE070E00F942EFEC0968093E0
:10E4E000C6008091C00086FFFCCF8091C000806490
:10E4F0008093C00008951F93182F8EE692EE60E07F
:10E500000F94C2F11093C6008091C00086FFFCCF2B
:10E510008091C00080648093C0000F94DCF11F9153
:10E5200008952F923F924F925F926F927F928F92B7
:10E530009F92AF92BF92CF92DF92EF92FF920F9392
:10E540001F93DF93CF93CDB7DEB762970FB6F894E2
:10E55000DEBF0FBECDBF382E622ECA01DB015C01CB
:10E560006D01772420E2222E2E010894411C511CBB
:10E570008BC081E0A81680E0B80681E0C80680E084
:10E58000D80628F0C601AA27BB270F940DF2BB2797
:10E59000AD2D9C2D8B2D0F940DF28A2D0F940DF225
:10E5A0002092C6008091C00086FFFCCF8091C00001
:10E5B00080648093C0009DE29093C6008091C0006B
:10E5C00086FFFCCF8091C00080648093C0002092C1
:10E5D000C6008091C00086FFFCCF8091C00080649F
:10E5E0008093C00019828601750188249924A1E0D6
:10E5F0003A1651F03A1620F0B2E03B1661F409C029
:10E600000BBFF701779007C0C7010F9477FE782EF4
:10E6100002C0F7017080872D0F940DF22092C60082
:10E620008091C00086FFFCCF8091C0008064809301
:10E63000C000872D8052F401EF70F0708F3520F408
:10E64000E40DF51D708204C0E40DF51D8EE280839B
:10E650000894E11CF11C011D111D0894811C911CE2
:10E6600090E18916910409F0C2CF80E190E0A0E02A
:10E67000B0E0A80EB91ECA1EDB1E198AC2010F9493
:10E68000FAF10F94DCF16A94662009F072CF629679
:10E690000FB6F894DEBF0FBECDBFCF91DF911F91B3
:10E6A0000F91FF90EF90DF90CF90BF90AF909F9031
:10E6B0008F907F906F905F904F903F902F90089534
:10E6C0002F923F924F925F926F927F928F929F9282
:10E6D000AF92BF92CF92DF92EF92FF920F931F9370
:10E6E000DF93CF93CDB7DEB7CD53D1400FB6F894BB
:10E6F000DEBF0FBECDBF01E20EBF0FEF0DBF94B75F
:10E70000F894A89514BE80916000886180936000A1
:10E7100010926000789493FF05C0E0910002F091A0
:10E7200001021995279A2F9A8091C00082608093E8
:10E73000C00080E18093C40088E18093C1000000A4
:10E74000EE24FF24870144E0A42EB12CCC24DD2448
:10E7500024C0C5010197F1F70894E11CF11C011DCB
:10E76000111D21E2E2162EE4F20620E0020720E06D
:10E77000120718F031E0C32ED12CC801B70127ECE5
:10E780003BE140E050E00F9441FE611571058105C9
:10E79000910519F485B1805885B98091C00087FD35
:10E7A00003C0C114D104A9F2A6014F5F5F4FC25E3E
:10E7B000DE4F59834883CE51D140C25EDE4F8881FF
:10E7C0009981CE51D140019711F00D9410FEC05D9A
:10E7D000DE4F19821882C053D14060E0C15DDE4F28
:10E7E0001882CF52D14088249924C35DDE4F19820C
:10E7F0001882CD52D140C05EDE4F188219821A8233
:10E800001B82C052D140CE5CDE4F188219821A8220
:10E810001B82C253D140EE24FF2487010BBFF701B6
:10E8200007911691C45CDE4F19830883CC53D14005
:10E830000D940BFEC25EDE4F28813981CE51D1404E
:10E840002130310509F52091C600C25EDE4F1982E4
:10E850001882CE51D14022C02F5F3F4F4F4F5F4FA4
:10E86000213082E138078AE7480780E0580780F0C6
:10E87000C45CDE4FE881F981CC53D140EF5FFF4F9C
:10E8800019F0EE27FF27099420E030E040E050E047
:10E890008091C00087FFE0CF2091C600C35DDE4FAE
:10E8A00048815981CD52D1404F5F5F4FC35DDE4FEC
:10E8B00059834883CD52D140213209F063C64A3092
:10E8C000510508F05FC60894811C911C53E0851621
:10E8D000910409F059C600E010E018C081E280936D
:10E8E000C6008091C00086FFFCCF8091C00080648C
:10E8F0008093C0002F5F3F4F2931310579F70F9486
:10E90000DCF10F5F1F4F0530110519F020E030E0FA
:10E91000E5CF10920A0210920B0210920C02109294
:10E920000D02109206021092070210920802109235
:10E930000902109202021092030210920402109235
:10E9400005028FEE90EE60E00F94F5F180E191EE1C
:10E9500060E00F94C2F18091C00087FFFCCF9091DE
:10E96000C600903608F09F759032B8F09093C600BC
:10E970008091C00086FFFCCF8091C00080648093AE
:10E98000C000A0E2A093C6008091C00086FFFCCF2B
:10E990008091C00080648093C000983409F4D7C18E
:10E9A0009934B8F4923409F459C1933458F490333B
:10E9B00019F1903308F4E3C59F33A1F1903409F0C5
:10E9C000DEC5BDC0953409F470C1963409F0D7C5D1
:10E9D00098C1923509F42BC2933538F49C3409F46C
:10E9E000F5C1913509F0CBC518C2963509F445C279
:10E9F000993509F0C4C567C483E792EE62E00F94CD
:10EA0000F5F110920602109207021092080210927D
:10EA1000090210920A0210920B0210920C0210923C
:10EA20000D0213C18FE792EE62E00F94F5F18FEEC5
:10EA300090EE60E00F94F5F181E291EE60E00F94CA
:10EA4000C2F187EB91EE60E00F94F5F180E391EE77
:10EA500060E00F94C2F184EE90EE60E00F94F5F167
:10EA60008FE391EE60E00F94C2F186E090E061E008
:10EA700070E00F9434F20F94DCF18DE591EE60E0DC
:10EA80000F94C2F189EC91EE60E00F94F5F18EE401
:10EA900091EE60E00F94C2F183EC91EE60E00F9490
:10EAA000F5F18CE691EE60E00F94C2F18EE10F94E7
:10EAB0000DF288E90F940DF281E00F940DF20F949E
:10EAC000DCF18BE791EE60E00F94C2F119E0E0E039
:10EAD000F0E010935700E4918E2F0F940DF20F94F5
:10EAE000DCF18AE891EE60E00F94C2F1E3E0F0E03F
:10EAF00010935700E4918E2F0F940DF20F94DCF1D8
:10EB000089E991EE60E00F94C2F1E2E0F0E0109349
:10EB10005700E4918E2F0F940DF20F94DCF188EAE8
:10EB200091EE60E00F94C2F1E1E0F0E01093570045
:10EB30001491812F0F940DF20F94DCF107CF8BE825
:10EB400092EE62E00F94F5F18BE492EE60E00F94A8
:10EB5000F5F10F94DCF100E010E019C0C8016F2D51
:10EB60000F947FFEFF2031F489E492EE60E00F9471
:10EB7000C2F10BC0F092C6008091C00086FFFCCFAE
:10EB80008091C00080648093C0000F5F1F4FC80158
:10EB900081519F41A0E0B0E0ABBFFC01F790BAE229
:10EBA000FB1621F0E2E000301E07C1F60F94DCF105
:10EBB0000F94DCF187E592EE60E00F94F5F10F948D
:10EBC000DCF1CC24DD2400E010E01EC0C8010F946D
:10EBD00077FEF82E882331F489E492EE60E00F94FA
:10EBE000C2F10BC08093C6008091C00086FFFCCFAD
:10EBF0008091C00080648093C000FE1419F00894D6
:10EC0000C11CD11C0F5F1F4FC80181519F41A0E063
:10EC1000B0E0ABBFFC01E790FAE2EF1621F022E092
:10EC20000030120799F60F94DCF10F94DCF182E6C4
:10EC300092EE60E00F94C2F1C60161E070E00F94C3
:10EC400034F20F94DCF10F94DCF110920202109276
:10EC50000302109204021092050278CE89E992EE26
:10EC600062E00F94F5F1279A2F9A16C02F9880E052
:10EC700090E0E0EDF7E03197F1F7019684369105E9
:10EC8000C1F72F9A80E090E0E0EDF7E03197F1F7DF
:10EC9000019684369105C1F78091C00087FFE6CFC9
:10ECA0008091C00087FFFCCF64C485EA92EE62E0E9
:10ECB0000F94F5F140910202509103026091040219
:10ECC0007091050281E020E10F9491F2809102029F
:10ECD00090910302A0910402B091050280509F4FD1
:10ECE000AF4FBF4F8093020290930302A0930402A0
:10ECF000B093050280509041A040B04008F426CE69
:10ED0000A4CF83EB92EE62E00F94F5F140910602FE
:10ED100050910702609108027091090280E020E1A1
:10ED20000F9491F28091060290910702A09108023F
:10ED3000B091090280509F4FAF4FBF4F80930602A2
:10ED400090930702A0930802B0930902FFCD80ECD4
:10ED500092EE62E00F94F5F183E792EE60E00F949B
:10ED6000F5F18FE792EE60E00F94F5F18BE892EE0B
:10ED700060E00F94F5F189E992EE60E00F94F5F10F
:10ED800085EA92EE60E00F94F5F183EB92EE60E09D
:10ED90000F94F5F180EC92EE60E00F94F5F187ECC2
:10EDA00092EE60E00F94F5F188ED92EE60E00F9442
:10EDB000F5F18FED92EE60E00F94F5F18AEE92EEB0
:10EDC00060E00F94F5F183E093EEBDCD87EC92EE19
:10EDD00062E00F94F5F181E40F947BF282E40F94EA
:10EDE0007BF283E40F947BF284E40F947BF285E45E
:10EDF0000F947BF286E40F947BF287E40F947BF20E
:10EE000088E40F947BF28AE40F947BF28BE40F94F6
:10EE10007BF28CE40F947BF299CD88ED92EE62E068
:10EE20000F94F5F1772473948824992409C48FED05
:10EE300092EE62E00F94F5F140910A0250910B02BC
:10EE400060910C0270910D0282E020E10F9491F22A
:10EE500080910A0290910B02A0910C02B0910D02D8
:10EE600080509F4FAF4FBF4F80930A0290930B0289
:10EE7000A0930C02B0930D0269CD8AEE92EE62E08F
:10EE80000F94F5F184EE90EE60E00F94F5F18FECC5
:10EE900091EE60E00F94F5F1662477244301CC5D98
:10EEA000DE4F19821882C452D140D401C301B695F5
:10EEB000A79597958795CA5DDE4F88839983AA8326
:10EEC000BB83C652D140CC5DDE4FA881B981C4520C
:10EED000D1401196CC5DDE4FB983A883C452D14096
:10EEE000CD0162E070E00F9434F2B0E2B093C6005E
:10EEF0008091C00086FFFCCF8091C0008064809329
:10EF0000C000EDE2E093C6008091C00086FFFCCF18
:10EF10008091C00080648093C000F0E2F093C6004E
:10EF20008091C00086FFFCCF8091C00080648093F8
:10EF3000C000CA5DDE4FE880F9800A811B81C6529D
:10EF4000D140BB27A12F902F8F2D0F940DF2CA5DBA
:10EF5000DE4F8881C652D1400F940DF2B0E2FB2EF5
:10EF6000F092C6008091C00086FFFCCF8091C00067
:10EF700080648093C0000DE30093C6008091C000C0
:10EF800086FFFCCF8091C00080648093C00010E2B7
:10EF90001093C6008091C00086FFFCCF8091C00016
:10EFA00080648093C0008BBEF3012791C65DDE4F65
:10EFB0002883CA52D140A22EBB24CC24DD2408943D
:10EFC000611C711C811C911C8BBEF3018791282E42
:10EFD0003324442455240894611C711C811C911C09
:10EFE0008BBEF3013791C55DDE4F3883CB52D140E4
:10EFF0000894611C711C811C911C8BBEF30147910C
:10F00000C45DDE4F4883CC52D140ADEFEA2EAFEF66
:10F01000FA2EAFEF0A2FAFEF1A2F6E0C7F1C801E57
:10F02000911E142D032DF22CEE24EA0CFB1C0C1D5A
:10F030001D1D0F940DF220E22093C6008091C000A8
:10F0400086FFFCCF8091C00080648093C000C65DC5
:10F05000DE4F8881CA52D1400F940DF230E23093D6
:10F06000C6008091C00086FFFCCF8091C000806404
:10F070008093C000C45DDE4F8881CC52D1400F9494
:10F080000DF240E24093C6008091C00086FFFCCFA5
:10F090008091C00080648093C000C55DDE4F888190
:10F0A000CB52D1400F940DF250E25093C6008091A4
:10F0B000C00086FFFCCF8091C00080648093C000B8
:10F0C0008FEFE8168FEFF80680E0080780E018075A
:10F0D00031F484E092EE60E00F94C2F1DFC0D80119
:10F0E000C7018070907CA070B0708050904CA040A0
:10F0F000B040D1F52FEF3FE340E050E0E222F322B1
:10F1000004231523CA5DDE4FA880B980CA80DB8046
:10F11000C652D140AE0CBF1CC01ED11EAA0CBB1CD7
:10F12000CC1CDD1C8EE092EE60E00F94C2F1BB2798
:10F13000A12F902F8F2D0F940DF28E2D0F940DF285
:10F1400030E23093C6008091C00086FFFCCF8091F2
:10F15000C00080648093C0004EE34093C60080915D
:10F16000C00086FFFCCF87C08EE09EEFA0E0B0E03D
:10F17000E822F9220A231B239CE0E91694E9F90608
:10F1800090E0090790E0190709F088C0C45DDE4FE0
:10F19000A881CC52D140EA2EFF2400E010E0102FCD
:10F1A0000F2DFE2CEE24C55DDE4FB881CB52D14031
:10F1B000EB0EF11C011D111DD601C501817090706F
:10F1C000A070B070DC0199278827E80EF91E0A1F8D
:10F1D0001B1F20EF30E040E050E0A222B322C42207
:10F1E000D52241E1AA0CBB1CCC1CDD1C4A95D1F7F1
:10F1F000EA0CFB1C0C1D1D1D81E090E0A0E0B0E0BE
:10F20000282239224A225B2235E1220C331C441C7D
:10F21000551C3A95D1F7E20CF31C041D151D57013E
:10F220006801AA0CBB1CCC1CDD1C85E192EE60E0E1
:10F230000F94C2F1C801AA27BB270F940DF2BB2778
:10F24000A12F902F8F2D0F940DF28E2D0F940DF274
:10F2500090E29093C6008091C00086FFFCCF809121
:10F26000C00080648093C000AEE3A093C60080918C
:10F27000C00086FFFCCF8091C00080648093C000F6
:10F28000C601AA27BB270F940DF2BB27AD2D9C2DDD
:10F290008B2D0F940DF28A2D0F940DF20F94DCF14B
:10F2A000CC5DDE4FE881F981C452D140F99709F471
:10F2B0004DCBF4E0EF2EF12C012D112D6E0C7F1CA7
:10F2C000801E911EF2CD83E093EE62E00F94F5F183
:10F2D0008AE192EE60E00F94C2F18091C00087FF56
:10F2E000FCCF1091C6001F751093C6008091C0001E
:10F2F00086FFFCCF8091C00080648093C0000F9493
:10F30000DCF1812F81548A3108F036C1163409F4BA
:10F3100095C0173490F4133409F44EC0143430F40B
:10F320001134F1F0123409F01DC130C0143409F465
:10F3300059C0153409F016C16BC01A3409F4C4C0A1
:10F340001B3438F4173409F48FC0183409F00AC19B
:10F35000A1C01B3409F4D2C01C3409F003C1E8C0B9
:10F360008FEF81B90DC082B1809582B980E090E0C5
:10F37000E0EDF7E03197F1F70196883C9105C1F790
:10F380008091C00087FFEFCF12B8EFC08FEF84B934
:10F390000DC085B1809585B980E090E0E0EDF7E0A3
:10F3A0003197F1F70196883C9105C1F78091C00033
:10F3B00087FFEFCF15B8D9C08FEF87B90DC088B1DF
:10F3C000809588B980E090E0E0EDF7E03197F1F7C3
:10F3D0000196883C9105C1F78091C00087FFEFCF6F
:10F3E00018B8C3C08FEF8AB90DC08BB180958BB9A7
:10F3F00080E090E0E0EDF7E03197F1F70196883C8E
:10F400009105C1F78091C00087FFEFCF1BB8ADC059
:10F410008FEF8DB90DC08EB180958EB980E090E0F0
:10F42000E0EDF7E03197F1F70196883C9105C1F7DF
:10F430008091C00087FFEFCF1EB897C08FEF80BBD1
:10F440000DC081B3809581BB80E090E0E0EDF7E0F6
:10F450003197F1F70196883C9105C1F78091C00082
:10F4600087FFEFCF11BA81C08FEF83BB0DC084B38C
:10F47000809584BB80E090E0E0EDF7E03197F1F714
:10F480000196883C9105C1F78091C00087FFEFCFBE
:10F4900014BA6BC08FEF809301010FC080910201FD
:10F4A00080958093020180E090E0E0EDF7E03197F5
:10F4B000F1F70196883C9105C1F78091C00087FF64
:10F4C000EDCF1092020151C08FEF809304010FC065
:10F4D0008091050180958093050180E090E0E0ED4A
:10F4E000F7E03197F1F70196883C9105C1F78091DB
:10F4F000C00087FFEDCF1092050137C08FEF8093DA
:10F5000007010FC08091080180958093080180E079
:10F5100090E0E0EDF7E03197F1F70196883C910536
:10F52000C1F78091C00087FFEDCF109208011DC088
:10F530008FEF80930A010FC080910B01809580931B
:10F540000B0180E090E0E0EDF7E03197F1F70196F4
:10F55000883C9105C1F78091C00087FFEDCF1092E4
:10F560000B0103C085E292EEEEC98091C00087FFD7
:10F57000FCCF8091C600EAC988E392EEE4C98CE131
:10F5800091EEE1C988249924933011F1943028F444
:10F59000913089F09230B8F408C0953061F195301F
:10F5A000F0F0963009F048C043C02B3109F042C951
:10F5B00091E06BE13FC96227C15DDE4F2883CF52E6
:10F5C000D14092E037C9B22FA0E0622793E032C960
:10F5D000822F90E0A82BB92B622794E02BC92E3004
:10F5E00009F039C3622795E0C05DDE4F19821882A9
:10F5F000C053D1401FC9E1E0F0E0EC0FFD1FC05D3A
:10F60000DE4F08811981C053D140E00FF11F2083E4
:10F610000F5F1F4FC05DDE4F19830883C053D14079
:10F6200062270A171B0709F005C9D80196E002C92D
:10F63000261709F010C303C0973009F0FBC87724E0
:10F640009981933109F412C19431C8F4963009F4C8
:10F65000D8C0973050F4923009F406C1933009F4C1
:10F660006DC0913009F059C253C0913109F477C08F
:10F67000923108F0BBC0903109F04FC2F5C098310B
:10F6800009F487C0993150F4953109F4EFC09531F0
:10F6900008F4C6C1963109F040C2C2C19A3109F4DA
:10F6A0006CC09A3108F491C09B3109F45BC09D3164
:10F6B00009F033C29D81903359F48F81882311F46E
:10F6C0009EE11CC0813011F091E018C098E916C08D
:10F6D000892F807591F0903539F4E0E0F0E089E011
:10F6E0008093570094910AC0983539F4E3E0F0E034
:10F6F00089E080935700949101C090E01A821B82A8
:10F700008D818C831D829E831F8227E030E009C299
:10F710001A8288E08B8381E48C8386E58D8382E581
:10F720008E8389E48F8383E5888780E589878FE5E9
:10F730008A8782E38B872BE030E0F3C18A818139AD
:10F7400041F0823941F0803911F48FE005C080E04A
:10F7500003C082E001C08AE01A828B8344C0772410
:10F76000739482C08D81882311F48EE12CC0813086
:10F7700011F081E028C088E926C01A82E1E0F0E0BB
:10F7800089E08093570084918B831C8224E030E0D1
:10F79000C8C18B81803589F48C81883039F4E2E0EE
:10F7A000F0E089E08093570084910DC0E0E0F0E044
:10F7B00089E080935700849106C0E3E0F0E089E09F
:10F7C0008093570084911A82DFCF8D81836C99E0FA
:10F7D000E1E0F0E0082E90935700E89507B600FCB2
:10F7E000FDCF1A821B8223E030E09BC180EC8A832C
:10F7F000CE5CDE4F188219821A821B82C253D1401E
:10F800008EC18A8190E0A0E0B0E0582F44273327D2
:10F8100022278B8190E0A0E0B0E0DC0199278827C7
:10F82000282B392B4A2B5B2B8D8190E0A0E0B0E098
:10F83000282B392B4A2B5B2B8C8190E0A0E0B0E089
:10F84000BA2FA92F982F8827282B392B4A2B5B2BCF
:10F85000220F331F441F551FC05EDE4F288339839C
:10F860004A835B83C052D1401A8259C13A81C95C34
:10F87000DE4F3883C753D140CA5CDE4F1882C6536F
:10F88000D1408B81C82EDD24CA5CDE4F488159816E
:10F89000C653D140C42AD52A933109F082C0CE5C28
:10F8A000DE4F88819981AA81BB81C253D1408050AB
:10F8B000904CA340B04030F583E0CE5CDE4FE88052
:10F8C000F9800A811B81C253D140F70100935B008C
:10F8D00080935700E89507B600FCFDCFCE5CDE4F65
:10F8E000088119812A813B81C253D14000501F4FAA
:10F8F0002F4F3F4FCE5CDE4F088319832A833B8313
:10F90000C253D140C05EDE4F488159816A817B81FC
:10F91000C052D140DE011B9631E08C9111962C91A2
:10F9200011971296C75CDE4F2883C953D140C85C3B
:10F93000DE4F1882C853D14090E0C85CDE4FE881AA
:10F94000F981C853D1408E2B9F2B0C01FA01609393
:10F950005B0030935700E89511244E5F5F4F6F4F67
:10F960007F4F0EEFE02E0FEFF02ECE0CDF1CC114F8
:10F97000D10499F685E0C05EDE4F088119812A81A5
:10F980003B81C052D140F80120935B008093570027
:10F99000E89507B600FCFDCF81E180935700E8951C
:10F9A00035C0C05EDE4F88819981AA81BB81C0527B
:10F9B000D140B695A795979587957C018601ABE0D8
:10F9C000AA2EB12CAC0EBD1E0BC0D5016D915D01F0
:10F9D000C7010F947FFE0894E11CF11C01501040F8
:10F9E0000115110591F7A60160E070E0440F551F65
:10F9F000661F771FC05EDE4FE880F9800A811B8199
:10FA0000C052D1404E0D5F1D601F711F1A82C05E33
:10FA1000DE4F488359836A837B83C052D1407FC0C5
:10FA2000FA80C55CDE4FF882CB53D140C65CDE4F16
:10FA30001882CA53D1408B81C82EDD24C65CDE4FAC
:10FA400008811981CA53D140C02AD12A1A828981DA
:10FA5000BE016D5F7F4F843121F59601C05EDE4FA0
:10FA6000E880F9800A811B81C052D1400BBFF701A9
:10FA700087919691DB018C9311969C936E5F7F4FDB
:10FA8000D801C7010296A11DB11DC05EDE4F88835B
:10FA90009983AA83BB83C052D14022503040F1F6F3
:10FAA00036C0C05EDE4F288139814A815B81C052F9
:10FAB000D1400894C108D108760100E010E0089414
:10FAC000C11CD11C0894E11CF11C011D111DE20E8A
:10FAD000F31E041F151F21BDBB27A52F942F832FB5
:10FAE00082BD2F5F3F4F4F4F5F4FF89A80B5DB01CC
:10FAF0008D93BD012E153F054007510761F7C05E8C
:10FB0000DE4F288339834A835B83C052D1409601FC
:10FB10002D5F3F4FFB01108204C080EC8A8322E0FE
:10FB200030E08BE18093C6008091C00086FFFCCF5F
:10FB30008091C00080648093C000C15DDE4FF88179
:10FB4000CF52D140F093C6008091C00086FFFCCF19
:10FB50008091C00080648093C000432F3093C60022
:10FB60008091C00086FFFCCF8091C00080648093AC
:10FB7000C000922F2093C6008091C00086FFFCCF6A
:10FB80008091C00080648093C0008EE08093C600A6
:10FB90008091C00086FFFCCF8091C000806480937C
:10FBA000C00065E1C15DDE4FE880CF52D1406E25D7
:10FBB00069276427FE01319610C090819093C6009A
:10FBC0008091C00086FFFCCF31968091C000806498
:10FBD0008093C0006927215030402115310569F715
:10FBE0006093C6008091C00086FFFCCF8091C0006A
:10FBF00080648093C00085B1805885B9772081F4F6
:10FC0000C15DDE4F0881CF52D1400F5FC15DDE4F35
:10FC10000883CF52D14090E0A0E0B0E00D941AF4F8
:10FC200027982F9880E090E020ED37E0F901319798
:10FC3000F1F7019684369105C9F700008091C00064
:10FC40008D7F8093C00081E180935700E895EE2777
:10FC5000FF270994FFCF90E00D941AF497FB092E2B
:10FC600007260AD077FD04D02ED006D000201AF443
:10FC7000709561957F4F0895F6F7909581959F4F08
:10FC80000895A1E21A2EAA1BBB1BFD010DC0AA1FDD
:10FC9000BB1FEE1FFF1FA217B307E407F50720F0F5
:10FCA000A21BB30BE40BF50B661F771F881F991F70
:10FCB0001A9469F760957095809590959B01AC01B9
:10FCC000BD01CF010895AA1BBB1B51E107C0AA1FAC
:10FCD000BB1FA617B70710F0A61BB70B881F991FED
:10FCE0005A95A9F780959095BC01CD010895F99991
:10FCF000FECF92BD81BDF89A992780B50895262F31
:10FD0000F999FECF1FBA92BD81BD20BD0FB6F89400
:0EFD1000FA9AF99A0FBE01960895F894FFCF63
:00000001FF
